{
  "contractName": "SmartContractTravel",
  "abi": [
    {
      "inputs": [],
      "name": "n_pasajero",
      "outputs": [
        {
          "internalType": "uint256",
          "name": "",
          "type": "uint256"
        }
      ],
      "stateMutability": "view",
      "type": "function",
      "constant": true
    },
    {
      "inputs": [
        {
          "internalType": "string",
          "name": "_nombre",
          "type": "string"
        },
        {
          "internalType": "string",
          "name": "_apellidos",
          "type": "string"
        },
        {
          "internalType": "string",
          "name": "_dni",
          "type": "string"
        },
        {
          "internalType": "string",
          "name": "_nif_csanitario",
          "type": "string"
        },
        {
          "internalType": "string",
          "name": "_nombre_csanitario",
          "type": "string"
        },
        {
          "internalType": "address",
          "name": "_dir_csanitario",
          "type": "address"
        },
        {
          "internalType": "string",
          "name": "_resultado_test",
          "type": "string"
        }
      ],
      "name": "Registrar_datos_pasajero",
      "outputs": [],
      "stateMutability": "nonpayable",
      "type": "function"
    },
    {
      "inputs": [
        {
          "internalType": "uint256",
          "name": "_id_npasajero",
          "type": "uint256"
        },
        {
          "internalType": "address",
          "name": "_dir_csanitario",
          "type": "address"
        }
      ],
      "name": "Registrar_cambio_test",
      "outputs": [],
      "stateMutability": "nonpayable",
      "type": "function"
    },
    {
      "inputs": [
        {
          "internalType": "uint256",
          "name": "_id",
          "type": "uint256"
        }
      ],
      "name": "Datos_Pasajero_Registrado",
      "outputs": [
        {
          "internalType": "string",
          "name": "nombre",
          "type": "string"
        },
        {
          "internalType": "string",
          "name": "",
          "type": "string"
        },
        {
          "internalType": "string",
          "name": "",
          "type": "string"
        },
        {
          "internalType": "string",
          "name": "",
          "type": "string"
        },
        {
          "internalType": "string",
          "name": "",
          "type": "string"
        },
        {
          "internalType": "address",
          "name": "dir_csanitario",
          "type": "address"
        },
        {
          "internalType": "string",
          "name": "",
          "type": "string"
        },
        {
          "internalType": "uint256",
          "name": "id_npasajero",
          "type": "uint256"
        }
      ],
      "stateMutability": "view",
      "type": "function",
      "constant": true
    },
    {
      "inputs": [],
      "name": "destroy",
      "outputs": [],
      "stateMutability": "nonpayable",
      "type": "function"
    }
  ],
  "bytecode": "0x6080604052600060015534801561001557600080fd5b50336000806101000a81548173ffffffffffffffffffffffffffffffffffffffff021916908373ffffffffffffffffffffffffffffffffffffffff160217905550611239806100656000396000f3fe608060405234801561001057600080fd5b50600436106100575760003560e01c806320453a881461005c5780636ac9b0b1146100aa57806381e63de8146102ec57806383197ef01461030a578063c8d00cb714610314575b600080fd5b6100a86004803603604081101561007257600080fd5b8101908080359060200190929190803573ffffffffffffffffffffffffffffffffffffffff1690602001909291905050506105fb565b005b6102ea600480360360e08110156100c057600080fd5b81019080803590602001906401000000008111156100dd57600080fd5b8201836020820111156100ef57600080fd5b8035906020019184600183028401116401000000008311171561011157600080fd5b90919293919293908035906020019064010000000081111561013257600080fd5b82018360208201111561014457600080fd5b8035906020019184600183028401116401000000008311171561016657600080fd5b90919293919293908035906020019064010000000081111561018757600080fd5b82018360208201111561019957600080fd5b803590602001918460018302840111640100000000831117156101bb57600080fd5b9091929391929390803590602001906401000000008111156101dc57600080fd5b8201836020820111156101ee57600080fd5b8035906020019184600183028401116401000000008311171561021057600080fd5b90919293919293908035906020019064010000000081111561023157600080fd5b82018360208201111561024357600080fd5b8035906020019184600183028401116401000000008311171561026557600080fd5b9091929391929390803573ffffffffffffffffffffffffffffffffffffffff169060200190929190803590602001906401000000008111156102a657600080fd5b8201836020820111156102b857600080fd5b803590602001918460018302840111640100000000831117156102da57600080fd5b90919293919293905050506106e3565b005b6102f461071c565b6040518082815260200191505060405180910390f35b610312610722565b005b6103406004803603602081101561032a57600080fd5b81019080803590602001909291905050506107ff565b6040518080602001806020018060200180602001806020018973ffffffffffffffffffffffffffffffffffffffff1681526020018060200188815260200187810387528f818151815260200191508051906020019080838360005b838110156103b657808201518184015260208101905061039b565b50505050905090810190601f1680156103e35780820380516001836020036101000a031916815260200191505b5087810386528e818151815260200191508051906020019080838360005b8381101561041c578082015181840152602081019050610401565b50505050905090810190601f1680156104495780820380516001836020036101000a031916815260200191505b5087810385528d818151815260200191508051906020019080838360005b83811015610482578082015181840152602081019050610467565b50505050905090810190601f1680156104af5780820380516001836020036101000a031916815260200191505b5087810384528c818151815260200191508051906020019080838360005b838110156104e85780820151818401526020810190506104cd565b50505050905090810190601f1680156105155780820380516001836020036101000a031916815260200191505b5087810383528b818151815260200191508051906020019080838360005b8381101561054e578082015181840152602081019050610533565b50505050905090810190601f16801561057b5780820380516001836020036101000a031916815260200191505b50878103825289818151815260200191508051906020019080838360005b838110156105b4578082015181840152602081019050610599565b50505050905090810190601f1680156105e15780820380516001836020036101000a031916815260200191505b509e50505050505050505050505050505060405180910390f35b8073ffffffffffffffffffffffffffffffffffffffff163373ffffffffffffffffffffffffffffffffffffffff161461067f576040517f08c379a00000000000000000000000000000000000000000000000000000000081526004018080602001828103825260558152602001806111826055913960600191505060405180910390fd5b6040518060400160405280600881526020017f504f53495449564f0000000000000000000000000000000000000000000000008152506002600084815260200190815260200160002060060190805190602001906106de9291906110d6565b505050565b60016000815480929190600101919050555061070d8d8d8d8d8d8d8d8d8d8d8d8d8d600154610d45565b50505050505050505050505050565b60015481565b60008054906101000a900473ffffffffffffffffffffffffffffffffffffffff1673ffffffffffffffffffffffffffffffffffffffff163373ffffffffffffffffffffffffffffffffffffffff16146107c6576040517f08c379a000000000000000000000000000000000000000000000000000000000815260040180806020018281038252602d8152602001806111d7602d913960400191505060405180910390fd5b60008054906101000a900473ffffffffffffffffffffffffffffffffffffffff1673ffffffffffffffffffffffffffffffffffffffff16ff5b60608060608060606000606060008060009054906101000a900473ffffffffffffffffffffffffffffffffffffffff1673ffffffffffffffffffffffffffffffffffffffff163373ffffffffffffffffffffffffffffffffffffffff16146108b2576040517f08c379a000000000000000000000000000000000000000000000000000000000815260040180806020018281038252602d8152602001806111d7602d913960400191505060405180910390fd5b6000600260008b815260200190815260200160002060405180610100016040529081600082018054600181600116156101000203166002900480601f01602080910402602001604051908101604052809291908181526020018280546001816001161561010002031660029004801561096c5780601f106109415761010080835404028352916020019161096c565b820191906000526020600020905b81548152906001019060200180831161094f57829003601f168201915b50505050508152602001600182018054600181600116156101000203166002900480601f016020809104026020016040519081016040528092919081815260200182805460018160011615610100020316600290048015610a0e5780601f106109e357610100808354040283529160200191610a0e565b820191906000526020600020905b8154815290600101906020018083116109f157829003601f168201915b50505050508152602001600282018054600181600116156101000203166002900480601f016020809104026020016040519081016040528092919081815260200182805460018160011615610100020316600290048015610ab05780601f10610a8557610100808354040283529160200191610ab0565b820191906000526020600020905b815481529060010190602001808311610a9357829003601f168201915b50505050508152602001600382018054600181600116156101000203166002900480601f016020809104026020016040519081016040528092919081815260200182805460018160011615610100020316600290048015610b525780601f10610b2757610100808354040283529160200191610b52565b820191906000526020600020905b815481529060010190602001808311610b3557829003601f168201915b50505050508152602001600482018054600181600116156101000203166002900480601f016020809104026020016040519081016040528092919081815260200182805460018160011615610100020316600290048015610bf45780601f10610bc957610100808354040283529160200191610bf4565b820191906000526020600020905b815481529060010190602001808311610bd757829003601f168201915b505050505081526020016005820160009054906101000a900473ffffffffffffffffffffffffffffffffffffffff1673ffffffffffffffffffffffffffffffffffffffff1673ffffffffffffffffffffffffffffffffffffffff168152602001600682018054600181600116156101000203166002900480601f016020809104026020016040519081016040528092919081815260200182805460018160011615610100020316600290048015610cec5780601f10610cc157610100808354040283529160200191610cec565b820191906000526020600020905b815481529060010190602001808311610ccf57829003601f168201915b505050505081526020016007820154815250509050806000015181602001518260400151836060015184608001518560a001518660c001518760e001519850985098509850985098509850985050919395975091939597565b8373ffffffffffffffffffffffffffffffffffffffff163373ffffffffffffffffffffffffffffffffffffffff1614610dc9576040517f08c379a00000000000000000000000000000000000000000000000000000000081526004018080602001828103825260558152602001806111826055913960600191505060405180910390fd5b6040518061010001604052808f8f8080601f016020809104026020016040519081016040528093929190818152602001838380828437600081840152601f19601f8201169050808301925050505050505081526020018d8d8080601f016020809104026020016040519081016040528093929190818152602001838380828437600081840152601f19601f8201169050808301925050505050505081526020018b8b8080601f016020809104026020016040519081016040528093929190818152602001838380828437600081840152601f19601f82011690508083019250505050505050815260200189898080601f016020809104026020016040519081016040528093929190818152602001838380828437600081840152601f19601f82011690508083019250505050505050815260200187878080601f016020809104026020016040519081016040528093929190818152602001838380828437600081840152601f19601f8201169050808301925050505050505081526020018573ffffffffffffffffffffffffffffffffffffffff16815260200184848080601f016020809104026020016040519081016040528093929190818152602001838380828437600081840152601f19601f82011690508083019250505050505050815260200182815250600260008381526020019081526020016000206000820151816000019080519060200190610fe09291906110d6565b506020820151816001019080519060200190610ffd9291906110d6565b50604082015181600201908051906020019061101a9291906110d6565b5060608201518160030190805190602001906110379291906110d6565b5060808201518160040190805190602001906110549291906110d6565b5060a08201518160050160006101000a81548173ffffffffffffffffffffffffffffffffffffffff021916908373ffffffffffffffffffffffffffffffffffffffff16021790555060c08201518160060190805190602001906110b89291906110d6565b5060e082015181600701559050505050505050505050505050505050565b828054600181600116156101000203166002900490600052602060002090601f01602090048101928261110c5760008555611153565b82601f1061112557805160ff1916838001178555611153565b82800160010185558215611153579182015b82811115611152578251825591602001919060010190611137565b5b5090506111609190611164565b5090565b5b8082111561117d576000816000905550600101611165565b509056fe4c6120646972656363696f6e20696e74726f647563696461206e6f20636f696e6369646520636f6e20656c2063656e74726f2073616e69746172696f2071756520656e766961206c61207472616e73616363696f6e536f6c6f206c61206165726f6c696e6561207075656465207265616c697a617220657374612066756e63696f6ea2646970667358221220f0b8643e0643b58412fbf252116912ee80fd174b39b08fc481298a5dda3998f664736f6c63430007060033",
  "immutableReferences": {},
  "source": "// SPDX-License-Identifier: GPL-3.0\r\n\r\n pragma solidity >= 0.7.00 < 0.8.0; \r\n \r\n contract Owned{\r\n     constructor(){\r\n         owner = msg.sender;\r\n     }\r\n     \r\n     address payable owner;\r\n     \r\n     modifier onlyOwner{\r\n         require(msg.sender == owner, \"Solo la aerolinea puede realizar esta funcion\");\r\n         _;\r\n     }\r\n     \r\n }\r\n \r\n contract SmartContractTravel is Owned{\r\n    \r\n    struct Pasajero{\r\n        string nombre;\r\n        string apellidos;\r\n        string dni;\r\n        \r\n        string nif_csanitario;\r\n        string nombre_csanitario;\r\n        address dir_csanitario;\r\n        \r\n        string resultado_test;\r\n        \r\n        uint id_npasajero;\r\n    }\r\n    \r\n    uint public n_pasajero = 0;\r\n    \r\n    mapping(uint=>Pasajero) private Pasajeros;\r\n    \r\n    //funcion para que el centro sanitario registre los datos de los pasajeros, incluyendo resultado de la prueba Covid19\r\n    function Registrar_datos_pasajero(string calldata _nombre, string calldata _apellidos, string calldata _dni, string calldata _nif_csanitario, string calldata _nombre_csanitario, \r\n        address _dir_csanitario, string calldata _resultado_test) public{\r\n   \r\n        n_pasajero++;\r\n        \r\n        Register(_nombre, _apellidos, _dni, _nif_csanitario, _nombre_csanitario, _dir_csanitario, _resultado_test, n_pasajero);\r\n        \r\n     \r\n    }\r\n    \r\n    function Register(string calldata _nombre, string calldata _apellidos, string calldata _dni, string calldata _nif_csanitario, string calldata _nombre_csanitario,\r\n        address _dir_csanitario, string calldata _resultado_test, uint _i) internal {\r\n        \r\n        require(msg.sender == _dir_csanitario, \"La direccion introducida no coincide con el centro sanitario que envia la transaccion\"); //requiere que el que registra los datos del pasajero sea el centro sanitario que llama al contrato\r\n\r\n        Pasajeros[_i] = Pasajero({\r\n            nombre: _nombre,\r\n            apellidos: _apellidos,\r\n            dni: _dni,\r\n            \r\n            nif_csanitario: _nif_csanitario,\r\n            nombre_csanitario: _nombre_csanitario,\r\n            dir_csanitario: _dir_csanitario,    //dir_csanitario: msg.sender,\r\n            \r\n            resultado_test: _resultado_test,\r\n            \r\n            id_npasajero: _i\r\n        });\r\n        \r\n    }\r\n    \r\n    function Registrar_cambio_test(uint _id_npasajero, address _dir_csanitario) public{\r\n        \r\n        require(msg.sender == _dir_csanitario, \"La direccion introducida no coincide con el centro sanitario que envia la transaccion\"); //requiere que el que registra los datos del pasajero sea el centro sanitario que llama al contrato\r\n        \r\n        Pasajeros[_id_npasajero].resultado_test = \"POSITIVO\";\r\n        \r\n    }\r\n    \r\n    //funcion que solo podrá ser llamada por la aerolínea para recuperar los datos de los pasajeros\r\n    function Datos_Pasajero_Registrado(uint _id) public onlyOwner view \r\n        returns (string memory nombre, string memory, string memory, string memory, string memory, address dir_csanitario, string memory, uint id_npasajero){\r\n        \r\n        //copiamos los datos a memoria\r\n        Pasajero memory p = Pasajeros[_id];\r\n        \r\n        //devolvemos los datos del struct por separado, dado que no se pueden devolver structs (así es como actúa el compilador cuando tiene que devolver por ejemplo un mapping publico de structs, con el metodo automatico get)\r\n        return (p.nombre, p.apellidos, p.dni, p.nif_csanitario,p.nombre_csanitario,p.dir_csanitario, p.resultado_test,p.id_npasajero);\r\n\r\n    }\r\n    \r\n    //funcion para borrar permanentemente el contrato una vez que el vuelo se haya realizado (solo puede llamarla la aerolínea con la dirección que creó el contrato)\r\n    function destroy() public onlyOwner{\r\n        selfdestruct(owner);\r\n    }\r\n\r\n }",
  "sourcePath": "C:\\Users\\Josele\\Desktop\\Año 2020-2021\\Documentos TFG\\TFG-SmartContractTravel\\TFG\\Entregar\\Project\\contracts\\SmartContractTravel.sol",
  "compiler": {
    "name": "solc",
    "version": "0.7.6+commit.7338295f.Emscripten.clang"
  },
  "schemaVersion": "3.4.2",
  "updatedAt": "2021-09-06T12:04:27.380Z",
  "networkType": "ethereum",
  "devdoc": {
    "kind": "dev",
    "methods": {},
    "version": 1
  },
  "userdoc": {
    "kind": "user",
    "methods": {},
    "version": 1
  }
}